:04000000A3C0FECFCC
:10000400FDCFFCCFFBCFFACFF9CFF8CFCAC0F6CFE4
:10001400F5CF05C1F3CFF2CFF1CFF0CFEFCFEECFD5
:10002400EDCF2B373930393834353039353300009A
:100034002B373930333730313131313100005265AB
:100044006164790030330000303400003032000045
:1000540030310000646F6F725F6F70656E006372A1
:100064006173685F73656E7300006572726F725FAF
:10007400636D64006361725F6C6F636B0000636146
:10008400725F756E6C6F636B00001027E803640089
:100094000A00010000100001100001001F0001000F
:1000A4000004000141542B534750494F3D25642C13
:1000B40025642C25642C25640D0A0041542B434DE2
:1000C40047533D001A0D0041542B4950523D3139DC
:1000D4003230300D00415445300D00415456310D3D
:1000E4000041542B434D45453D300D0041542B43B5
:1000F4004C49503D310D0041542B435343413D0085
:1001040041542B435343423D310D0041542B434D45
:1001140047463D310D0041542B435343533D004763
:10012400534D0041542B434D4744413D0044454CFD
:1001340020414C4C000001000200A0000600040015
:10014400A2000000F894EE27ECBBF1E0FBBFEBBF8C
:10015400E5BFF8E1F1BDE1BD8DE0A2E0BB27ED9381
:100164008A95E9F780E094E0A0E6ED930197E9F73A
:10017400EAE3F1E085919591009761F0A591B5913D
:1001840005901590BF01F00105900D920197E1F7DC
:10019400FB01F0CFEFE5EDBFE4E0EEBFC0E6D1E058
:1001A400E5C10A921A92AA93BA93EA93FA93EFB723
:1001B400EA931A9310E0711639F125D5FED53097DC
:1001C40039F021D5ED91FD913197FE93EE931AC04C
:1001D400A3E01A9FF001EC53FE4F1CD5A091C4017B
:1001E400A03061F4A091C701A03041F4A091CA01EC
:1001F400A03021F4A091CD01A03009F003C0E9B7EB
:10020400EB7FE9BF1F5FD7CF08D51991E991EFBF05
:10021400F991E991B991A991199009901895EA93E6
:10022400FA93EFB7EA93F7D51BB10CB1E12FEC7158
:1002340079F4EA2DF7D40083A394E4E6EA1509F4EB
:10024400AA24C394E4E6EC1519F4CC24689425F8A4
:10025400ECD5E991EFBFF991E99118951A93ED2D39
:10026400D394E0D41081E4E6ED1509F4DD24F89488
:10027400CA947894E12F5FC1E0E0E8BBE2E0E7BB19
:10028400E0E0E5BBE4BBE2BBE1BBE3BFE2BFEEBD44
:10029400C4D4E1E0EBBDECEDEABDE1E0E9BDECED99
:1002A400E8BDE1E0E7BDECEDE6BDE0E0EFBDE2E096
:1002B400EEBDE0E0E2BDE5BDE4BDE3BDE5BFE9BF01
:1002C400EBB9E8E9EAB9E6E8E0BDE0E0E0BDECE07E
:1002D400E9B9E0E8E8B9E0E0E0BFE6B9EDB9E6BFC6
:1002E400EFE1E1BDEFE0E1BD789408959FD4EB53D5
:1002F400FE4FA981BA81A083B18398D4EC53FE4FF9
:10030400A1E0A083E9B7E460E9BF1AC31A9310E03F
:10031400143628F4E12F86D47DD41F5FF9CF0BC1A6
:100324001A9310E01D3030F486D4E552FE4F72D497
:100334001F5FF8CF00C1EADFE0E0E093EE01E09355
:10034400EF01E2E06E2EEAE09E2EE1E04E2E76D43E
:10035400689422F876D47AD4089580DFEF3439F49F
:100364007DDFEB3411F49394D1DF68D4CFDF0895AB
:10037400E8EAF0E06ED4ED816FD4E8856DD4EB85C6
:100384006BD4EE8569D480E1F3D36296BFDF249603
:10039400089522FE0FC0EFEBF0E063D4E6E2F0E054
:1003A40060D466D44ED46BD4E8E8F3E152D44ED48E
:1003B400E89422F867D471F4E0EDF1E04AD46DD208
:1003C400E8ECF0E063D4E7E0E61511F4639402C0CE
:1003D400E3E0BE2E5DD409F4AEDF08951A9314E170
:1003E400E92D5AD45BD461F421FE06C0EBECF0E0B5
:1003F4004DD421D457D458D445D409F4AEDF9BC08E
:1004040056D461F421FE06C0E9EDF0E03FD413D4E4
:1004140049D44AD437D409F4A0DF8DC04CD461F454
:1004240021FE06C0EFEDF0E031D405D43BD43CD43A
:1004340029D409F492DF7FC0E430A0E0FA0761F424
:1004440021FE06C0E5EEF0E021D4F5D32BD42CD464
:1004540019D409F482DF6FC0E530A0E0FA0761F433
:1004640021FE06C0E0EFF0E011D4E5D31BD41CD488
:1004740009D409F472DF5FC0E630A0E0FA0781F422
:1004840021FE0AC0EBEFF0E0ECD3E4E3F0E0E9D3C3
:10049400EFD3D1D307D408D4F5D309F45EDF4BC02E
:1004A400E730A0E0FA0761F421FE06C0E4E0F1E0E1
:1004B400EDD3C1D3F7D3F8D3E5D309F44EDF3BC072
:1004C400E830A0E0FA0761F421FE06C0EFE0F1E0B5
:1004D400DDD3B1D3E7D3E8D3D5D309F43EDF2BC0C2
:1004E400E930A0E0FA0781F421FE0AC0EAE1F1E074
:1004F400B8D3E3E2F1E0B5D3BBD39DD3D3D3D4D304
:10050400C1D309F42ADF17C0EA30A0E0FA0781F466
:1005140021FE0AC0E7E2F1E0A4D3E1E3F1E0A1D3D4
:10052400A7D389D3BFD3C0D3ADD309F416DF03C097
:100534004424E1E09E2E19910895EA81E03011F4FB
:10054400C19801C0C19AE881F981B9D3F9C121FEEA
:1005540003C0B9D3BBD3A8D3BDD339F4BFD3E0ED23
:10056400F7E077D3EADF6AD38394089585DEA8950C
:10057400B09BF3C0E62D90D33097A1F421FE05C0C3
:10058400E8E9FAE366D362D38FD368DEEC3621F46C
:10059400A8D3E1E06E2E52D37BD319F4E4E66E2E99
:1005A4004DD3DBC07BD3D9F46DD3C1F4E52DEE5F1D
:1005B400DE2E9BD39DD38FD198D39DD3A0D339F472
:1005C400A5DEE0EDF7E045D341D3E2E06E2E8DD316
:1005D40092D395D319F09ADEE4E66E2EBEC067D3AB
:1005E40089F4FCDEA091C701A03019F4E1E0E41520
:1005F40009F003C0E4E66E2E21D3442011F4E3E0B5
:100604006E2EABC058D341F429DEE23221F4DA94E1
:1006140068D3E4E06E2EA1C0E430A0E0FA07F1F460
:1006240031D3D9F45394D52C6DD36FD354D16AD329
:100634006FD365D349F4E5E06E2E72DEE52DF2D278
:10064400E9D2E4E1F0E02ED35DD362D3B0D2E1305D
:1006540021F45CDE65DEE3E06E2E7FC0E530A0E0D1
:10066400FA0781F4FBDDEA3039F4DA945D2CEAE030
:10067400F0E018D3E6E06E2E05D319F447DEE3E08C
:100684006E2E6BC0E630A0E0FA0709F059C0FAD22A
:1006940009F055C021975394D52C3ED340D31BD198
:1006A4003BD3E8E4F0E03ED32AD339F417D30BD399
:1006B4000AD309D35DDE3FDE40C02ED3ECE4F0E084
:1006C40031D31DD339F40AD3FED2FDD207D350DE81
:1006D40032DE33C021D3E0E5F0E024D310D371F44B
:1006E400A0E0B0E0E0E082D31FD321D330F422D3E2
:1006F400EE57FF4F25D327D3F8CF1DC00DD3E4E524
:10070400F0E010D3FCD271F4A0E0B0E0E1E06ED3ED
:100714000BD30DD330F40ED3E858FF4F11D313D3BA
:10072400F8CF09C001D303D330F404D3E259FF4F07
:1007340007D309D3F8CFE7E06E2EE8DD21960DC08C
:10074400E730A0E0FA0711F424DE07C0E830A0E0A7
:10075400FA0719F49DD209F4EEDDB09B0BC0E0E07A
:10076400E41541F4E7E0E61529F0A0E0B0E032D367
:10077400E13009F04CC02197EB2D8ED23097C1F5B2
:10078400A9D211F4689423F8E091CD01E03011F47A
:10079400689424F8B29B02C023FC01C010C0E1E0BD
:1007A400BE2EE89423F8C0D2C2D230F4C3D2E85AA1
:1007B400FF4FC6D2C8D2F8CFE0E6FAEE80D2B39BA0
:1007C40002C024FC01C013C0E2E0BE2EE89424F869
:1007D400ABD2ADD230F4AED2EE59FF4FB1D2B3D2D8
:1007E400F8CFE0E6FAEE35D2E3E0EA937FDD0EC01F
:1007F40055D211F4CEDD0AC05AD211F4CADD06C0B6
:100804005AD221F445D211F496DDBB242196B09935
:1008140005C0E4E6E61511F020FC01C008C0E1E0E3
:100824004E2E662473DD4FD251D2E89420F8E4E6CC
:10083400E61549F0A091CA01A03029F4A0E020FCFB
:10084400A1E0A03009F007C049D2E4E8F3E001D206
:1008540074DE689420F8E4E6E615B9F4E82D1CD2B9
:10086400309711F474DE11C019D221F433D209F493
:1008740083940BC01CD211F46ADE07C01CD229F485
:100884006624E1E09E2E4E2E882471CEFFCF5D9B20
:10089400FECFE881ECB9219608951A93A981BA8113
:1008A400ED91A983BA831E2FE03019F01A93EFDF7C
:1008B400F5CF4DD245C01A93E981FA813196E98387
:1008C400FA833197E4911E2FE03019F01A93DFDF99
:1008D400F3CF3DD235C09BD20E811F812885398547
:1008E400002E012AD9F0BADC5E2F583051F4AE81C3
:1008F400BF810A171B0720F4215030400F5F1F4FA0
:10090400F2CF5A3059F03F932F932F5F3F4FE52F8B
:10091400AF91BF91EC9301501040E2CFD901E0E0D8
:10092400EC93E885F9857AD22A960895EA81EA93C8
:10093400AEDFA881B981ED91FD913196FE93EE93DE
:1009440023960895269763D210E0AC85BD85E0E038
:10095400F0E0ED93FC93EA89FB893196EA8BFB8BFB
:100964003197E4912E2FE03009F4FCC0E12FE03000
:1009740031F4253211F411E001C0EED1F2C0E130BE
:10098400A1F4253211F4E8D1EBC012E040E000E01C
:100994002D3211F401E0E5C02B3211F44BE2E1C039
:1009A400203211F440E2DDC002C0E23039F450E0FC
:1009B40013E0203311F40068D4C003C0E33009F01D
:1009C400D0C0203310F02A3308F007C0AAE05A9FA1
:1009D400502DE22FE0535E0FC4C0E22FE33639F40A
:1009E400C3D1C5D1C1D1A481AA93C5D1B9C0E337BC
:1009F40029F4C8D1C9D1F2D01E2F07C0E03749F479
:100A0400C1D1C2D1F5D01E2F086002600F7730E04B
:100A14002DC0E43611F0E93611F4046002C0E53764
:100A240029F4EEE8F0E0B7D115E00BC0E83511F495
:100A3400086003C0E83709F093C0E8E9F0E0ABD1FF
:100A440014E002FF11C09ED1A9D1AB85AA2332F4D0
:100A5400EA85FB85AED1EA87FB874DE2403011F091
:100A64001F5F01C00B7F02C08DD198D100FD10C063
:100A7400151770F407FF08C002FF04C00B7F242F72
:100A8400115001C020E301C020E266D15150F0CFE3
:100A9400312F01FF15C0303091F003FF05C0EE8106
:100AA400FF81259178D105C0AE81BF812D91AE83A0
:100AB400BF8352D1503009F051503150ECCF47C070
:100AC40020E3EE81FF817DD1E887F987EE81FF8104
:100AD400329661D1E885F985AA85BB85AE17BF0733
:100AE40050F02F5FA885B985EA85FB85EA1BFB0BCF
:100AF400EA87FB87EFCF2A3328F003FF02C0295F80
:100B040001C0295D04FD19C0213320F4A885B985ED
:100B1400119709F409C0531710F000FF01C011C068
:100B240020E207FF0AC020E3006102FF06C00B7F3A
:100B34004A9321D1503009F051500ED1503009F070
:100B440051503150A885B985129708F0B9CF00FFEC
:100B540007C0503029F05150E0E2EA930CD1F9CFAC
:100B640010E0F9CEAC85BD8528D158D1649608959E
:100B7400FF92F82E26974FD1DE01149616D18D01DF
:100B8400E0E0EC83ED83EE83EF83DE0118960DD174
:100B940014D15FD01A930A93E8E9F4E05AD0FE0125
:100BA400389657D0CFDE3ED12896FF900895002482
:100BB400662789919991E991F991A991B991009642
:100BC40029F001976D9105906015C9F3601910F42F
:100BD400EFEF0895E0E009F0E3950895A991B99144
:100BE400EE27FF276D91662311F03196FBCF089510
:100BF400AA27BB27E991F9910590002011F01196DD
:100C0400FBCFFD010895A3E01A9FF001EB53FE4FC3
:100C1400DF010895A0E0A0830895EEEFEDBDE4E2C6
:100C2400ECBD0895F0E0E05AFE4F0895E881A3E09A
:100C3400EA9FF0010895E12FF0E00895689421F807
:100C44000895E4EFF1E0FA93EA930895E1E0EA937A
:100C54004DCBFA93EA930895FF2766277727B5D0FB
:100C64000895F7DF80E084DF2296E2E2EA930FCE74
:100C7400ECEBF0E0EEDF80E07BDF22960895E0E02D
:100C8400EA9334CBE091C401E0300895E2DF13CE5F
:100C9400E091C701E0300895F0E00895E130A0E06C
:100CA400FA070895D6DFEBCFE89421F80895E230EF
:100CB400A0E0FA070895E330A0E0FA070895C9DF39
:100CC400E2E0EA9313CBE1E0EA930895E0EBF4E089
:100CD400C0DF33CCE091CA01E0300895E0E0EA934C
:100CE40008955D2CE4E1F0E0DDCFE8EEF1E0B1CF72
:100CF400E5E0F0E0AECFE2E4F0E0ABDFF9CF57DFC0
:100D0400E0300895EBEDF1E0A4CFECE0F0E0A1CF0A
:100D1400E6E2F0E09EDFF9CFEEEEF1E09ACFE2E01A
:100D2400F0E097CF96DFFBCFE0E0E8830895A88159
:100D3400AB300895A881B0E0A053BE4FE881ACCF9A
:100D4400E491EC930895E881EF5FE8830895EAE085
:100D5400EA939DDD188108952A93ED85FE8579DF58
:100D6400E989FA8909950895E889F98908953497F4
:100D7400E88BF98B0895ED85FE856BDFE989FA89A7
:100D840009950895F1DFF3CFA889B989149615D090
:100D9400EE83FF835ECFEE83FF830895A889B9892C
:100DA40014960BD0EA87FB8708950024AF0DB01D7D
:100DB4000895F195E195F0400895ED91FC91119716
:100DC40008950590F491E02D08957A936A93FA9327
:100DD400EA930895E199FECFFF93FFB7F894AEBB71
:100DE400BFBBE09AEDB3FFBFFF910895E19B02C042
:100DF400A895FCCF9FB7F894AEBBBFBBE09A8DB368
:100E0400E81719F0EDBBE29AE19A9FBF08955A934F
:100E14004A933A932A931A930A9308955D814C81D5
:100E24003B812A81198108810895099119910895B6
:00000001FF
