:040000003FC0FECF30
:10000400FDCFFCCFFBCFFACFF9CFF8CFF7CFF6CFA8
:10001400F5CF63C0F3CFF2CFF1CFF0CFEFCFEECF78
:10002400EDCF1027E80364000A000100001000016E
:1000340010000100000048656C6C6F2100486F7768
:100044002061726520796F753F00536C6176612081
:100054004F7463752C2053796E750049205376795B
:1000640061746F6D752044756875210080C001004E
:10007400020038000200C40170000000F894EE276A
:10008400ECBBF1E0FBBFEBBFE5BFF8E1F1BDE1BDC7
:100094008DE0A2E0BB27ED938A95E9F780E094E038
:1000A400A0E6ED930197E9F7E2E7F0E085919591F9
:1000B400009761F0A591B59105901590BF01F001ED
:1000C40005900D920197E1F7FB01F0CFEFE5EDBF4D
:1000D400E4E0EEBFC0E6D1E030C0EA93FA93EFB7B4
:1000E400EA9368D11BB10CB1E12FEC7179F4E52DE1
:1000F400539433D10083E4E6E51509F4552473944D
:10010400E4E6E71519F47724689420F856D1E991C8
:10011400EFBFF991E99118951A937720F1F3E42D43
:1001240043941BD11081E4E6E41509F44424F894C3
:100134007A947894E12F19910895E0E0E8BBE7BB45
:10014400E5BBE4BBE2BBE1BBE3BFE2BFEFBDEEBD99
:10015400EDBDECBDE7BDE6BDEBBDEABDE9BDE8BD67
:10016400E2BDE5BDE4BDE3BDE5BFE9BFEBB9E8E948
:10017400EAB9E6E8E0BDE0E0E0BDE9E1E9B9E0E8DC
:10018400E8B9E0E0E0BFE6B9EDB9E6BFE0E1EA9343
:10019400B3D0E5E0E6D0EAE3F0E0E7D0E9D0E1E48B
:1001A400F0E0E3D089D0E8EBFBE0ECD0EDD0E0E088
:1001B400D8D0EEE4F0E0D9D0DBD0EFE5F0E0D5D054
:1001C4007BD0E8E8F3E1DED0DFD051D0E0E0C9D065
:1001D4007894A2DFEA93BBD09FDFEA9355D0F9CF9E
:1001E400FFCFFFE0FA95F1F70895A7B3AF70A7BB6F
:1001F400C19AC098F6DFC29AF4DFA6B3C298F1DFC1
:10020400C29AEFDFC298A7FDF5CF0895A07FAB2B6C
:10021400A8BBC29AE6DFC298E4DF0895C198A7B3E9
:10022400A76FA7BBB8B3BF70A881F0DFA881A29560
:10023400EDDFC19A90C0C29AD4DFE6B3C298D1DF91
:10024400E07F0895CEDFF7DFAE2FF5DFC198E295AA
:10025400EA2B0895CADFE881F0E0EC53FE4FE08119
:10026400A981EA0F95D06980988022960895BDDF10
:10027400E2E08ED0BADFECE08BD0B7DFE1E088D0EB
:10028400E0E09E2E6E2E0895EF93FF93A88168946C
:10029400AA3019F0E894681430F09394E0E0EA93FB
:1002A4009A92D8DF36F06394A0DFC09AA881AA930B
:1002B400B5DFFF91EF914FC01A93E981FA8131962E
:1002C400E983FA833197E4911E2FE03019F01A93F1
:1002D400DBDFF3CF188123960895AA27BB27119754
:1002E400F1F70895C198A7B3A76FA7BBB8B3BF70C0
:1002F400A8818CDFC19A2FC0C298C0988880E881F9
:10030400E058E093C601E881E054E093C70142D08D
:1003140041D040D0E2DFE0E2EA93E4DFDEDFE8E26E
:1003240037D0DBDFE4E034D0D8DFE5E831D0D5DF07
:10033400A7B3AF70A7BBC19A85DFE53011F0E0E049
:100344000AC053DFE6E024D092DFE1E004C05D9B05
:10035400FECFE881ECB921960895F0E0E05AFE4F13
:100364000895EA93E0E0EA9375CFFA93EA93089547
:10037400A3DFE8EEF3E0F9DF11D0E0E0EA93E1E097
:10038400EA9368CFF2DF0AC072DFECEDF5E0FACF52
:10039400EA9344CFA2DFE0E3EA93A4CFE991F99191
:1003A400309639F088EE93E00197F1F7A8953197EC
:1003B400C9F708951A930A93089509911991089514
:00000001FF
